{
  "contractName": "Lottery",
  "abi": [
    {
      "inputs": [],
      "stateMutability": "nonpayable",
      "type": "constructor"
    },
    {
      "inputs": [],
      "name": "owner",
      "outputs": [
        {
          "internalType": "address",
          "name": "",
          "type": "address"
        }
      ],
      "stateMutability": "view",
      "type": "function",
      "constant": true
    },
    {
      "inputs": [
        {
          "internalType": "uint256",
          "name": "",
          "type": "uint256"
        }
      ],
      "name": "players",
      "outputs": [
        {
          "internalType": "address payable",
          "name": "",
          "type": "address"
        }
      ],
      "stateMutability": "view",
      "type": "function",
      "constant": true
    },
    {
      "inputs": [],
      "name": "getBalance",
      "outputs": [
        {
          "internalType": "uint256",
          "name": "",
          "type": "uint256"
        }
      ],
      "stateMutability": "view",
      "type": "function",
      "constant": true
    },
    {
      "inputs": [],
      "name": "getPlayers",
      "outputs": [
        {
          "internalType": "address payable[]",
          "name": "",
          "type": "address[]"
        }
      ],
      "stateMutability": "view",
      "type": "function",
      "constant": true
    },
    {
      "inputs": [],
      "name": "enter",
      "outputs": [],
      "stateMutability": "payable",
      "type": "function",
      "payable": true
    },
    {
      "inputs": [],
      "name": "getRandomNumber",
      "outputs": [
        {
          "internalType": "uint256",
          "name": "",
          "type": "uint256"
        }
      ],
      "stateMutability": "view",
      "type": "function",
      "constant": true
    },
    {
      "inputs": [],
      "name": "pickWinner",
      "outputs": [],
      "stateMutability": "nonpayable",
      "type": "function"
    }
  ],
  "bytecode": "0x608060405234801561001057600080fd5b50336000806101000a81548173ffffffffffffffffffffffffffffffffffffffff021916908373ffffffffffffffffffffffffffffffffffffffff160217905550610882806100606000396000f3fe6080604052600436106100705760003560e01c80638da5cb5b1161004e5780638da5cb5b146100e2578063dbdff2c11461010d578063e97dcb6214610138578063f71d96cb1461014257610070565b806312065fe0146100755780635d495aea146100a05780638b5b9ccc146100b7575b600080fd5b34801561008157600080fd5b5061008a61017f565b6040516100979190610508565b60405180910390f35b3480156100ac57600080fd5b506100b5610187565b005b3480156100c357600080fd5b506100cc61028b565b6040516100d99190610613565b60405180910390f35b3480156100ee57600080fd5b506100f7610319565b6040516101049190610656565b60405180910390f35b34801561011957600080fd5b5061012261033d565b60405161012f9190610508565b60405180910390f35b610140610391565b005b34801561014e57600080fd5b50610169600480360381019061016491906106a2565b610409565b60405161017691906106de565b60405180910390f35b600047905090565b600060018054905061019761033d565b6101a19190610728565b9050600181815481106101b7576101b6610759565b5b9060005260206000200160009054906101000a900473ffffffffffffffffffffffffffffffffffffffff1673ffffffffffffffffffffffffffffffffffffffff166108fc479081150290604051600060405180830381858888f19350505050158015610227573d6000803e3d6000fd5b50600067ffffffffffffffff81111561024357610242610788565b5b6040519080825280602002602001820160405280156102715781602001602082028036833780820191505090505b5060019080519060200190610287929190610448565b5050565b6060600180548060200260200160405190810160405280929190818152602001828054801561030f57602002820191906000526020600020905b8160009054906101000a900473ffffffffffffffffffffffffffffffffffffffff1673ffffffffffffffffffffffffffffffffffffffff16815260200190600101908083116102c5575b5050505050905090565b60008054906101000a900473ffffffffffffffffffffffffffffffffffffffff1681565b60008060009054906101000a900473ffffffffffffffffffffffffffffffffffffffff1642604051602001610373929190610820565b6040516020818303038152906040528051906020012060001c905090565b66038d7ea4c6800034116103a457600080fd5b6001339080600181540180825580915050600190039060005260206000200160009091909190916101000a81548173ffffffffffffffffffffffffffffffffffffffff021916908373ffffffffffffffffffffffffffffffffffffffff160217905550565b6001818154811061041957600080fd5b906000526020600020016000915054906101000a900473ffffffffffffffffffffffffffffffffffffffff1681565b8280548282559060005260206000209081019282156104c1579160200282015b828111156104c05782518260006101000a81548173ffffffffffffffffffffffffffffffffffffffff021916908373ffffffffffffffffffffffffffffffffffffffff16021790555091602001919060010190610468565b5b5090506104ce91906104d2565b5090565b5b808211156104eb5760008160009055506001016104d3565b5090565b6000819050919050565b610502816104ef565b82525050565b600060208201905061051d60008301846104f9565b92915050565b600081519050919050565b600082825260208201905092915050565b6000819050602082019050919050565b600073ffffffffffffffffffffffffffffffffffffffff82169050919050565b600061057a8261054f565b9050919050565b61058a8161056f565b82525050565b600061059c8383610581565b60208301905092915050565b6000602082019050919050565b60006105c082610523565b6105ca818561052e565b93506105d58361053f565b8060005b838110156106065781516105ed8882610590565b97506105f8836105a8565b9250506001810190506105d9565b5085935050505092915050565b6000602082019050818103600083015261062d81846105b5565b905092915050565b60006106408261054f565b9050919050565b61065081610635565b82525050565b600060208201905061066b6000830184610647565b92915050565b600080fd5b61067f816104ef565b811461068a57600080fd5b50565b60008135905061069c81610676565b92915050565b6000602082840312156106b8576106b7610671565b5b60006106c68482850161068d565b91505092915050565b6106d88161056f565b82525050565b60006020820190506106f360008301846106cf565b92915050565b7f4e487b7100000000000000000000000000000000000000000000000000000000600052601260045260246000fd5b6000610733826104ef565b915061073e836104ef565b92508261074e5761074d6106f9565b5b828206905092915050565b7f4e487b7100000000000000000000000000000000000000000000000000000000600052603260045260246000fd5b7f4e487b7100000000000000000000000000000000000000000000000000000000600052604160045260246000fd5b60008160601b9050919050565b60006107cf826107b7565b9050919050565b60006107e1826107c4565b9050919050565b6107f96107f482610635565b6107d6565b82525050565b6000819050919050565b61081a610815826104ef565b6107ff565b82525050565b600061082c82856107e8565b60148201915061083c8284610809565b602082019150819050939250505056fea26469706673582212202d7e5192bab4960dedea8441a7c6c71cf631741bd54ecedf73a7fb97ac8527cb64736f6c634300080b0033",
  "immutableReferences": {},
  "source": "// SPDX-License-Identifier: MIT\r\npragma solidity ^0.8.11;\r\n\r\ncontract Lottery{\r\n    address public owner;\r\n    address payable[] public players;\r\n\r\n    constructor() {\r\n        owner = msg.sender;\r\n\r\n    }\r\n\r\n    function getBalance() public view returns (uint) {\r\n        return address(this).balance;\r\n    }\r\n\r\n    function getPlayers() public view returns (address payable[] memory) {\r\n        return players;\r\n    }\r\n\r\n    function enter() public payable {\r\n        require(msg.value > .001 ether);\r\n\r\n        // address of player entering lottery\r\n        players.push(payable(msg.sender));\r\n\r\n    }\r\n\r\n    function getRandomNumber() public view returns (uint) {\r\n        return uint(keccak256(abi.encodePacked(owner, block.timestamp)));\r\n    }\r\n\r\n    function pickWinner() public {\r\n        uint index = getRandomNumber() % players.length;\r\n        players[index].transfer(address(this).balance);\r\n\r\n        // reset the state of the contract\r\n        players = new address payable[](0); \r\n    }\r\n\r\n    modifier onlyOwner() {\r\n        require(msg.sender == owner);\r\n        _;\r\n    }\r\n\r\n}",
  "sourcePath": "C:\\Users\\smknd\\Lottery\\lottery\\contracts\\Lottery.sol",
  "compiler": {
    "name": "solc",
    "version": "0.8.11+commit.d7f03943.Emscripten.clang"
  },
  "schemaVersion": "3.4.16",
  "updatedAt": "2023-11-15T19:06:51.467Z",
  "networkType": "ethereum",
  "devdoc": {
    "kind": "dev",
    "methods": {},
    "version": 1
  },
  "userdoc": {
    "kind": "user",
    "methods": {},
    "version": 1
  }
}